:100000001CC019C218C217C216C215C214C213C22C
:1000100012C211C210C20FC20EC20DC20CC20BC25C
:100020000AC209C208C207C206C205C204C203C28C
:1000300002C201C23E003E06800011241FBECFEF67
:10004000CDBFDFE3DEBFE4E3F0E040E017C0B591F1
:10005000A59135912591059107FD0CC0959185914C
:10006000EF01F92FE82F05900D92A217B307D9F7EA
:10007000FE0104C01D92A217B307E1F7E933F407AC
:0A00800031F7B4D0CCC1F894FFCFE3
:10008A001F93CF93DF9300D000D0CDB7DEB7AC017A
:10009A008031974210F04FE057E29A013695279542
:1000AA003695279536952795A5ECB0E282D1FC01C5
:1000BA00F295E295EF70EF27FF70EF279F01ADEC05
:1000CA00BCEC77D196958795969587959695879561
:1000DA009C01220F331F880F991F880F991F880FC1
:1000EA00991F820F931F9F01281B390BF901E45DA9
:1000FA00FB47808189839A013695279536952795FE
:10010A00ABE7B4E156D1FC01F695E7959F01ADEC5A
:10011A00BCEC4FD196958795969587959695879538
:10012A009C01220F331F880F991F880F991F880F70
:10013A00991F820F931F9F01281B390BF901E45D58
:10014A00FB4780818A839A0134D1FC01F695E795B1
:10015A00F695E795F695E7959F012BD196958795A4
:10016A0096958795969587959C01220F331F880F40
:10017A00991F880F991F880F991F820F931F9F013C
:10018A00281B390BD901A45DBB478C918B83CF0106
:10019A00880F991FEE0FFF1FEE0FFF1FEE0FFF1FB5
:1001AA00E80FF91F4E1B5F0BFA01E45DFB478081E4
:1001BA008C8315D180EC49D010E009C0E1E0F0E071
:1001CA00EC0FFD1FE10FF11D80813FD01F5F14303E
:1001DA00A8F30ED12496CDBFDEBFDF91CF911F9138
:0201EA00089576
:1001EC0062D0C3D080E090E04ADF2FE784E89EE144
:1001FC00215080409040E1F700C000009ED07BD0A1
:10020C008091033E882361F08091023E811105C0EC
:10021C0081E08093023EBDD003C01092023EA5D077
:10022C008091003E9091013E2ADF8091003E90919A
:10023C00013ECAD02FE78AE196E0215080409040E1
:08024C00E1F700C00000DACF69
:1002540020E030E019C098E090932604482F50E045
:10026400022E02C0559547950A94E2F740FF04C058
:1002740094E09093250403C094E09093260498E0BE
:10028400909325042F5F3F4F2830310524F3E0E29B
:10029400F4E088E0868394E092838583A3ECB9E05C
:0E02A4001197F1F700C0000086839183089542
:1002B20088ED84BF21E020936100E0E2F4E094E065
:1002C200918388E08183218322E02183E0E0F4E0CE
:1002D2002283818B9283828B8283838BE0E0FAE09C
:1002E20028EE33E026A337A324EF31E020A731A77D
:1002F20093E19183808380818160808386D0089599
:100302008091053E882349F08091003E9091013E04
:100312000A968093003E9093013E8091043E88238A
:1003220059F08091003E9091013E009729F00A9782
:100332008093003E9093013E8091003E9091013E59
:0403420048D0089502
:100346001092053E1092043E1092033E80910804DE
:1003560082FD03C091E09093053E83FD03C091E0CA
:100366009093043E81FD03C081E08093033E08958F
:10037600A0E2B4E082E016968C9316971092023EA5
:10038600E0E0FAE080818E7F808381818F7E8183A9
:0803960081E016968C93089596
:10039E0082E08093250481E08093023EE0E0FAE063
:0E03AE008081816080838181806181830895D8
:1003BC00A29FB001B39FC001A39F01D0B29F700D4B
:0803CC00811D1124911D08950B
:1003D4009C0136952795E0E0FAE020A731A786A393
:0403E40097A308953E
:1003E800E0E2F4E08CE0858384E0868388E086831D
:0203F800089566
:1003FA00E0E2F4E098E0968384E08683958385833F
:02040A00089553
:10040C00EDDF80E421DFF3DFE9DF8FE81DDFEFDFD5
:02041C00089541
:0E041E00EC010CD00AD0CE010AD0CE0109D0DC
:0A042C003F065B4F666D7D077F6F92
:02043600E4CD13
:02043800089525
:02043A00089523
:02043C00089521
:02043E0023DEBB
:00000001FF
