:100000001CC03EC23DC23CC23BC23AC239C238C229
:1000100037C236C235C234C233C232C231C230C234
:100020002FC22EC22DC22CC22BC22AC229C228C264
:1000300027C226C23E003E06800011241FBECFEF1D
:10004000CDBFDFE3DEBFE4E3F0E040E017C0B591F1
:10005000A59135912591059107FD0CC0959185914C
:10006000EF01F92FE82F05900D92A217B307D9F7EA
:10007000FE0104C01D92A217B307E1F7E933F407AC
:0A00800031F7B4D0F1C1F894FFCFBE
:10008A001F93CF93DF9300D000D0CDB7DEB7AC017A
:10009A008031974210F04FE057E29A013695279542
:1000AA003695279536952795A5ECB0E2B1D1FC0196
:1000BA00F295E295EF70EF27FF70EF279F01ADEC05
:1000CA00BCECA6D196958795969587959695879532
:1000DA009C01220F331F880F991F880F991F880FC1
:1000EA00991F820F931F9F01281B390BF901EA58A8
:1000FA00FB47808189839A013695279536952795FE
:10010A00ABE7B4E185D1FC01F695E7959F01ADEC2B
:10011A00BCEC7ED196958795969587959695879509
:10012A009C01220F331F880F991F880F991F880F70
:10013A00991F820F931F9F01281B390BF901EA5857
:10014A00FB4780818A839A0163D1FC01F695E79582
:10015A00F695E795F695E7959F015AD19695879575
:10016A0096958795969587959C01220F331F880F40
:10017A00991F880F991F880F991F820F931F9F013C
:10018A00281B390BD901AA58BB478C918B83CF0105
:10019A00880F991FEE0FFF1FEE0FFF1FEE0FFF1FB5
:1001AA00E80FF91F4E1B5F0BFA01EA58FB478081E3
:1001BA008C833AD180EC54D010E009C0E1E0F0E041
:1001CA00EC0FFD1FE10FF11D80814AD01F5F143033
:1001DA00A8F333D12496CDBFDEBFDF91CF911F9113
:0201EA00089576
:1001EC006DD0CED080E090E04ADF2FE784E89EE12E
:1001FC00215080409040E1F700C00000A9D086D08B
:10020C008091033E882361F08091023E811105C0EC
:10021C0081E08093023EECD003C01092023EB0D03D
:10022C002091003E3091013EC901880F991F220F89
:10023C00331F220F331F220F331F820F931F1FDF19
:10024C008091003E9091013EC3D02FE78AE196E069
:0E025C00215080409040E1F700C00000CFCF5D
:10026A0020E030E019C098E090932604482F50E02F
:10027A00022E02C0559547950A94E2F740FF04C042
:10028A0094E09093250403C094E09093260498E0A8
:10029A00909325042F5F3F4F2830310524F3E0E285
:1002AA00F4E088E0868394E092838583A3ECB9E046
:0E02BA001197F1F700C000008683918308952C
:1002C80088ED84BF21E020936100E0E2F4E094E04F
:1002D800918388E08183218322E02183E0E0F4E0B8
:1002E8002283818B9283828B8283838BE0E0FAE086
:1002F80088EE93E086A397A384EF91E080A791A767
:1003080083E181831082808181608083A0D00895F9
:100318008091053E882349F08091003E9091013EEE
:1003280001968093003E9093013E8091043E88237D
:1003380059F08091003E9091013E009729F0019775
:100348008093003E9093013E8091003E9091013E43
:0403580041D00895F3
:10035C001092053E1092043E1092033E80910804C8
:10036C0082FD03C091E09093053E83FD03C091E0B4
:10037C009093043E81FD03C081E08093033E089579
:10038C00A0E2B4E082E016968C9316971092023E8F
:10039C00E0E0FAE080818E7F808381818F7E818393
:0803AC0081E016968C93089580
:1003B400AA1BBB1B51E107C0AA1FBB1FA617B70787
:1003C40010F0A61BB70B881F991F5A95A9F78095A3
:0803D4009095BC01CD010895D4
:1003DC009C0184EF91E0B901E7DFE0E0FAE060A76F
:1003EC0071A788EE93E0B901DFDF66A377A30895C8
:1003FC0082E08093250481E08093023EE0E0FAE005
:0E040C00808181608083818180618183089579
:10041A00A29FB001B39FC001A39F01D0B29F700DEC
:08042A00811D1124911D0895AC
:10043200E0E2F4E08CE0858384E0868388E08683D2
:0204420008951B
:10044400E0E2F4E098E0968384E0868395838583F4
:02045400089509
:10045600EDDF80E407DFF3DFE9DF8FE803DFEFDFBF
:020466000895F7
:0E046800EC010CD00AD0CE010AD0CE0109D092
:0A0476003F065B4F666D7D077F6F48
:02048000BFCDEE
:020482000895DB
:020484000895D9
:020486000895D7
:02048800FEDD97
:00000001FF
