:100000001CC00AC109C108C107C106C105C104C19C
:1000100003C102C101C100C1FFC0FEC0FDC0FCC0E0
:10002000FBC0FAC0F9C0F8C0F7C0F6C0F5C0F4C014
:10003000F3C0F2C03E003E05800011241FBECFEF8A
:10004000CDBFDFE3DEBFE4E3F0E040E017C0B591F1
:10005000A59135912591059107FD0CC0959185914C
:10006000EF01F92FE82F05900D92A217B307D9F7EA
:10007000FE0104C01D92A217B307E1F7E933F407AC
:0A00800031F754D0C2C0F894FFCF4E
:10008A0020E030E019C098E090932604482F50E011
:10009A00022E02C0559547950A94E2F740FF04C024
:1000AA0094E09093250403C094E09093260498E08A
:1000BA00909325042F5F3F4F2830310524F3E0E267
:1000CA00F4E088E0868394E092838583A3ECB9E028
:0E00DA001197F1F700C000008683918308950E
:1000E80088ED84BF21E020936100E0E2F4E094E031
:1000F800918388E08183218322E02183E0E0F4E09A
:100108002283818B9283828B8283838BE0E0FAE067
:1001180028EE33E026A337A3808380818160808323
:040128005ED0089508
:10012C00DDDF19D030D08091013E882351F08091D1
:10013C00003E811104C081E08093003E02C0109209
:10014C00003E2FE78AE196E0215080409040E1F795
:06015C0000C00000E6CF28
:100162001092033E1092023E1092013E80910804CA
:10017200811103C091E09093033E811103C091E08D
:100182009093023E811103C081E08093013E089565
:100192008091033E882329F08091043E8F5F8093F3
:1001A200043E8091023E882339F08091043E8823E8
:1001B20019F081508093043E8091043E1CD0089532
:1001C200E0E2F4E08CE0858384E0868388E0868345
:0201D20008958E
:1001D400E0E2F4E098E0968384E086839583858367
:0201E40008957C
:1001E600EDDF80E44FDFF3DFE9DF8FE84BDFEFDFA2
:0201F60008956A
:1001F80028E230E0281B31092093260A3093270A89
:02020800089557
:0E020A00EC0107D005D0CE0105D0CE0104D006
:02021800F3CE23
:02021A00089545
:02021C00089543
:02021E00089541
:0202200032DFCB
:00000001FF
